{"abi":[{"type":"function","name":"MAX_RECIPIENTS","inputs":[],"outputs":[{"name":"","type":"uint256","internalType":"uint256"}],"stateMutability":"view"},{"type":"function","name":"VERSION","inputs":[],"outputs":[{"name":"","type":"string","internalType":"string"}],"stateMutability":"view"},{"type":"function","name":"batchCount","inputs":[],"outputs":[{"name":"","type":"uint256","internalType":"uint256"}],"stateMutability":"view"},{"type":"function","name":"batches","inputs":[{"name":"","type":"bytes32","internalType":"bytes32"}],"outputs":[{"name":"batchId","type":"bytes32","internalType":"bytes32"},{"name":"recipientCount","type":"uint256","internalType":"uint256"},{"name":"successCount","type":"uint256","internalType":"uint256"},{"name":"failedCount","type":"uint256","internalType":"uint256"},{"name":"timestamp","type":"uint256","internalType":"uint256"},{"name":"blockNumber","type":"uint256","internalType":"uint256"}],"stateMutability":"view"},{"type":"function","name":"executePayouts","inputs":[{"name":"payouts","type":"tuple[]","internalType":"struct ARCfxPayouts.Payout[]","components":[{"name":"to","type":"address","internalType":"address"},{"name":"token","type":"address","internalType":"address"},{"name":"amount","type":"uint256","internalType":"uint256"},{"name":"metadata","type":"string","internalType":"string"}]}],"outputs":[{"name":"batchId","type":"bytes32","internalType":"bytes32"}],"stateMutability":"nonpayable"},{"type":"function","name":"getBatchInfo","inputs":[{"name":"batchId","type":"bytes32","internalType":"bytes32"}],"outputs":[{"name":"","type":"tuple","internalType":"struct ARCfxPayouts.BatchInfo","components":[{"name":"batchId","type":"bytes32","internalType":"bytes32"},{"name":"recipientCount","type":"uint256","internalType":"uint256"},{"name":"successCount","type":"uint256","internalType":"uint256"},{"name":"failedCount","type":"uint256","internalType":"uint256"},{"name":"timestamp","type":"uint256","internalType":"uint256"},{"name":"blockNumber","type":"uint256","internalType":"uint256"}]}],"stateMutability":"view"},{"type":"function","name":"getTotalBatches","inputs":[],"outputs":[{"name":"","type":"uint256","internalType":"uint256"}],"stateMutability":"view"},{"type":"function","name":"pause","inputs":[],"outputs":[],"stateMutability":"pure"},{"type":"function","name":"unpause","inputs":[],"outputs":[],"stateMutability":"pure"},{"type":"event","name":"BatchPayoutExecuted","inputs":[{"name":"batchId","type":"bytes32","indexed":true,"internalType":"bytes32"},{"name":"recipientCount","type":"uint256","indexed":false,"internalType":"uint256"},{"name":"fundingToken","type":"address","indexed":true,"internalType":"address"},{"name":"totalFunding","type":"uint256","indexed":false,"internalType":"uint256"},{"name":"timestamp","type":"uint256","indexed":false,"internalType":"uint256"}],"anonymous":false},{"type":"event","name":"PayoutExecuted","inputs":[{"name":"to","type":"address","indexed":true,"internalType":"address"},{"name":"token","type":"address","indexed":true,"internalType":"address"},{"name":"amount","type":"uint256","indexed":false,"internalType":"uint256"},{"name":"metadata","type":"string","indexed":false,"internalType":"string"},{"name":"timestamp","type":"uint256","indexed":false,"internalType":"uint256"}],"anonymous":false},{"type":"event","name":"PayoutFailed","inputs":[{"name":"to","type":"address","indexed":true,"internalType":"address"},{"name":"token","type":"address","indexed":true,"internalType":"address"},{"name":"amount","type":"uint256","indexed":false,"internalType":"uint256"},{"name":"reason","type":"string","indexed":false,"internalType":"string"},{"name":"timestamp","type":"uint256","indexed":false,"internalType":"uint256"}],"anonymous":false}],"bytecode":{"object":"0x608060405234801561000f575f80fd5b506108d58061001d5f395ff3fe608060405234801561000f575f80fd5b5060043610610090575f3560e01c80638456cb59116100635780638456cb59146100c3578063a6980ce21461012b578063c81e25ab14610133578063e561dddc146101a2578063ffa1ad74146101aa575f80fd5b806306f13056146100945780630e6818a9146100b05780633f4ba83a146100c3578063753207c7146100cd575b5f80fd5b61009d60015481565b6040519081526020015b60405180910390f35b61009d6100be3660046105f4565b6101db565b6100cb610514565b005b6100e06100db366004610663565b610568565b6040516100a791905f60c082019050825182526020830151602083015260408301516040830152606083015160608301526080830151608083015260a083015160a083015292915050565b61009d606481565b610175610141366004610663565b5f60208190529081526040902080546001820154600283015460038401546004850154600590950154939492939192909186565b604080519687526020870195909552938501929092526060840152608083015260a082015260c0016100a7565b60015461009d565b6101ce604051806040016040528060058152602001640312e302e360dc1b81525081565b6040516100a791906106bd565b5f816102245760405162461bcd60e51b8152602060048201526013602482015272139bc81c185e5bdd5d1cc81c1c9bdd9a591959606a1b60448201526064015b60405180910390fd5b606482111561026b5760405162461bcd60e51b8152602060048201526013602482015272546f6f206d616e7920726563697069656e747360681b604482015260640161021b565b6001546040516bffffffffffffffffffffffff193360601b16602082015242603482015260548101919091526074016040516020818303038152906040528051906020012090505f805f5b8481101561044b575f8686838181106102d1576102d16106d6565b90506020028101906102e391906106ea565b6102ec90610791565b80519091506001600160a01b03161580610311575060208101516001600160a01b0316155b8061031e57506040810151155b156103cc578261032d81610853565b93505080602001516001600160a01b0316815f01516001600160a01b03167fa10085a120cd02bf1381e3324072cf61a9cbe0040c417039fbd69bc39cd836c18360400151426040516103be9291909182526060602083018190526019908301527f496e76616c6964207061796f757420706172616d6574657273000000000000006080830152604082015260a00190565b60405180910390a350610439565b80602001516001600160a01b0316815f01516001600160a01b03167f997cb0e05fda0e04baf0b1533eda1352bdd8049607aa824d34f32369721eb9ac836040015184606001514260405161042293929190610877565b60405180910390a38361043481610853565b945050505b8061044381610853565b9150506102b6565b506040805160c08101825284815260208082018781528284018681526060840186815242608086019081524360a087019081525f8b81529586905296852095518655925160018087019190915591516002860155516003850155905160048401559251600590920191909155815491906104c483610853565b9091555050604080518581525f602082018190524282840152915185917f73d32bc1647f0dc40328fb8c7ceb534ece085cb96d59449c5586b3e79ff5c04a919081900360600190a3505092915050565b60405162461bcd60e51b8152602060048201526024808201527f4e6f7420696d706c656d656e746564202d206164642061636365737320636f6e6044820152631d1c9bdb60e21b606482015260840161021b565b61059e6040518060c001604052805f80191681526020015f81526020015f81526020015f81526020015f81526020015f81525090565b505f9081526020818152604091829020825160c08101845281548152600182015492810192909252600281015492820192909252600382015460608201526004820154608082015260059091015460a082015290565b5f8060208385031215610605575f80fd5b823567ffffffffffffffff8082111561061c575f80fd5b818501915085601f83011261062f575f80fd5b81358181111561063d575f80fd5b8660208260051b8501011115610651575f80fd5b60209290920196919550909350505050565b5f60208284031215610673575f80fd5b5035919050565b5f81518084525f5b8181101561069e57602081850181015186830182015201610682565b505f602082860101526020601f19601f83011685010191505092915050565b602081525f6106cf602083018461067a565b9392505050565b634e487b7160e01b5f52603260045260245ffd5b5f8235607e198336030181126106fe575f80fd5b9190910192915050565b634e487b7160e01b5f52604160045260245ffd5b6040516080810167ffffffffffffffff8111828210171561073f5761073f610708565b60405290565b604051601f8201601f1916810167ffffffffffffffff8111828210171561076e5761076e610708565b604052919050565b80356001600160a01b038116811461078c575f80fd5b919050565b5f608082360312156107a1575f80fd5b6107a961071c565b6107b283610776565b815260206107c1818501610776565b8183015260408401356040830152606084013567ffffffffffffffff808211156107e9575f80fd5b9085019036601f8301126107fb575f80fd5b81358181111561080d5761080d610708565b61081f601f8201601f19168501610745565b91508082523684828501011115610834575f80fd5b80848401858401375f9082019093019290925250606082015292915050565b5f6001820161087057634e487b7160e01b5f52601160045260245ffd5b5060010190565b838152606060208201525f61088f606083018561067a565b905082604083015294935050505056fea26469706673582212202996ac5f72446ed3f476048844f381befec5e90e583de9a21c250c73297fea3864736f6c63430008140033","linkReferences":{}},"methodIdentifiers":{"MAX_RECIPIENTS()":"a6980ce2","VERSION()":"ffa1ad74","batchCount()":"06f13056","batches(bytes32)":"c81e25ab","executePayouts((address,address,uint256,string)[])":"0e6818a9","getBatchInfo(bytes32)":"753207c7","getTotalBatches()":"e561dddc","pause()":"8456cb59","unpause()":"3f4ba83a"},"id":0}