{"abi":[{"type":"function","name":"VERSION","inputs":[],"outputs":[{"name":"","type":"string","internalType":"string"}],"stateMutability":"view"},{"type":"function","name":"getSettlement","inputs":[{"name":"settlementId","type":"bytes32","internalType":"bytes32"}],"outputs":[{"name":"","type":"tuple","internalType":"struct ARCfxSettlement.Settlement","components":[{"name":"fromToken","type":"address","internalType":"address"},{"name":"toToken","type":"address","internalType":"address"},{"name":"amountIn","type":"uint256","internalType":"uint256"},{"name":"amountOut","type":"uint256","internalType":"uint256"},{"name":"fromWallet","type":"address","internalType":"address"},{"name":"toWallet","type":"address","internalType":"address"},{"name":"referenceId","type":"string","internalType":"string"},{"name":"timestamp","type":"uint256","internalType":"uint256"},{"name":"blockNumber","type":"uint256","internalType":"uint256"}]}],"stateMutability":"view"},{"type":"function","name":"getTotalSettlements","inputs":[],"outputs":[{"name":"","type":"uint256","internalType":"uint256"}],"stateMutability":"view"},{"type":"function","name":"logComplianceCheck","inputs":[{"name":"wallet","type":"address","internalType":"address"},{"name":"riskLevel","type":"string","internalType":"string"},{"name":"riskScore","type":"uint256","internalType":"uint256"}],"outputs":[],"stateMutability":"nonpayable"},{"type":"function","name":"logSettlement","inputs":[{"name":"fromToken","type":"address","internalType":"address"},{"name":"toToken","type":"address","internalType":"address"},{"name":"amountIn","type":"uint256","internalType":"uint256"},{"name":"amountOut","type":"uint256","internalType":"uint256"},{"name":"fromWallet","type":"address","internalType":"address"},{"name":"toWallet","type":"address","internalType":"address"},{"name":"referenceId","type":"string","internalType":"string"}],"outputs":[],"stateMutability":"nonpayable"},{"type":"function","name":"settlementCount","inputs":[],"outputs":[{"name":"","type":"uint256","internalType":"uint256"}],"stateMutability":"view"},{"type":"function","name":"settlements","inputs":[{"name":"","type":"bytes32","internalType":"bytes32"}],"outputs":[{"name":"fromToken","type":"address","internalType":"address"},{"name":"toToken","type":"address","internalType":"address"},{"name":"amountIn","type":"uint256","internalType":"uint256"},{"name":"amountOut","type":"uint256","internalType":"uint256"},{"name":"fromWallet","type":"address","internalType":"address"},{"name":"toWallet","type":"address","internalType":"address"},{"name":"referenceId","type":"string","internalType":"string"},{"name":"timestamp","type":"uint256","internalType":"uint256"},{"name":"blockNumber","type":"uint256","internalType":"uint256"}],"stateMutability":"view"},{"type":"event","name":"ComplianceChecked","inputs":[{"name":"wallet","type":"address","indexed":true,"internalType":"address"},{"name":"riskLevel","type":"string","indexed":false,"internalType":"string"},{"name":"riskScore","type":"uint256","indexed":false,"internalType":"uint256"},{"name":"timestamp","type":"uint256","indexed":false,"internalType":"uint256"}],"anonymous":false},{"type":"event","name":"SettlementLogged","inputs":[{"name":"fromToken","type":"address","indexed":true,"internalType":"address"},{"name":"toToken","type":"address","indexed":true,"internalType":"address"},{"name":"amountIn","type":"uint256","indexed":false,"internalType":"uint256"},{"name":"amountOut","type":"uint256","indexed":false,"internalType":"uint256"},{"name":"fromWallet","type":"address","indexed":false,"internalType":"address"},{"name":"toWallet","type":"address","indexed":false,"internalType":"address"},{"name":"referenceId","type":"string","indexed":false,"internalType":"string"},{"name":"timestamp","type":"uint256","indexed":false,"internalType":"uint256"}],"anonymous":false}],"bytecode":{"object":"0x608060405234801561000f575f80fd5b50610cdc8061001d5f395ff3fe608060405234801561000f575f80fd5b506004361061007a575f3560e01c806355e94b571161005857806355e94b57146100db57806388bf6eb3146100ee578063c3e6ace0146100f6578063ffa1ad7414610116575f80fd5b806301bc95e21461007e578063037eca76146100af57806344216ced146100c6575b5f80fd5b61009161008c3660046107bb565b610147565b6040516100a699989796959493929190610815565b60405180910390f35b6100b860015481565b6040519081526020016100a6565b6100d96100d43660046108d9565b610228565b005b6100d96100e936600461092f565b6102c1565b6001546100b8565b6101096101043660046107bb565b610660565b6040516100a691906109c2565b61013a604051806040016040528060058152602001640312e302e360dc1b81525081565b6040516100a69190610a78565b5f6020819052908152604090208054600182015460028301546003840154600485015460058601546006870180546001600160a01b0397881698968816979596949593841694929093169261019b90610a91565b80601f01602080910402602001604051908101604052809291908181526020018280546101c790610a91565b80156102125780601f106101e957610100808354040283529160200191610212565b820191905f5260205f20905b8154815290600101906020018083116101f557829003601f168201915b5050505050908060070154908060080154905089565b6001600160a01b0384166102745760405162461bcd60e51b815260206004820152600e60248201526d125b9d985b1a59081dd85b1b195d60921b60448201526064015b60405180910390fd5b836001600160a01b03167fad326c1a154cd19c14db429c48079648d38358b703941c6a74b07192d381af44848484426040516102b39493929190610af1565b60405180910390a250505050565b6001600160a01b03881661030b5760405162461bcd60e51b815260206004820152601160248201527024b73b30b634b210333937b6aa37b5b2b760791b604482015260640161026b565b6001600160a01b0387166103535760405162461bcd60e51b815260206004820152600f60248201526e24b73b30b634b2103a37aa37b5b2b760891b604482015260640161026b565b5f86116103a25760405162461bcd60e51b815260206004820152601760248201527f416d6f756e74206d75737420626520706f736974697665000000000000000000604482015260640161026b565b6001600160a01b0384166103ed5760405162461bcd60e51b8152602060048201526012602482015271125b9d985b1a5908199c9bdb55d85b1b195d60721b604482015260640161026b565b6001600160a01b0383166104365760405162461bcd60e51b815260206004820152601060248201526f125b9d985b1a59081d1bd5d85b1b195d60821b604482015260640161026b565b6001546040516bffffffffffffffffffffffff1960608b811b821660208401528a811b82166034840152604883018a905287811b8216606884015286901b16607c82015242609082015260b08101919091525f9060d0016040516020818303038152906040528051906020012090506040518061012001604052808a6001600160a01b03168152602001896001600160a01b03168152602001888152602001878152602001866001600160a01b03168152602001856001600160a01b0316815260200184848080601f0160208091040260200160405190810160405280939291908181526020018383808284375f9201829052509385525050426020808501919091524360409485015285835282815291839020845181546001600160a01b03199081166001600160a01b03928316178355938601516001830180548616918316919091179055938501516002820155606085015160038201556080850151600482018054851691861691909117905560a08501516005820180549094169416939093179091555060c082015160068201906105d29082610b79565b5060e082015160078201556101009091015160089091015560018054905f6105f983610c35565b9190505550876001600160a01b0316896001600160a01b03167f020417b1f892e81273d0a1d7e21d5555b828dd2ddf06b44d1400a7da4532638d8989898989894260405161064d9796959493929190610c59565b60405180910390a3505050505050505050565b60408051610120810182525f8082526020820181905291810182905260608082018390526080820183905260a0820183905260c082015260e081018290526101008101919091525f828152602081815260409182902082516101208101845281546001600160a01b039081168252600183015481169382019390935260028201549381019390935260038101546060840152600481015482166080840152600581015490911660a083015260068101805460c08401919061072090610a91565b80601f016020809104026020016040519081016040528092919081815260200182805461074c90610a91565b80156107975780601f1061076e57610100808354040283529160200191610797565b820191905f5260205f20905b81548152906001019060200180831161077a57829003601f168201915b50505050508152602001600782015481526020016008820154815250509050919050565b5f602082840312156107cb575f80fd5b5035919050565b5f81518084525f5b818110156107f6576020818501810151868301820152016107da565b505f602082860101526020601f19601f83011685010191505092915050565b6001600160a01b038a81168252898116602083015260408201899052606082018890528681166080830152851660a082015261012060c082018190525f9061085f838201876107d2565b60e084019590955250506101000152979650505050505050565b80356001600160a01b038116811461088f575f80fd5b919050565b5f8083601f8401126108a4575f80fd5b50813567ffffffffffffffff8111156108bb575f80fd5b6020830191508360208285010111156108d2575f80fd5b9250929050565b5f805f80606085870312156108ec575f80fd5b6108f585610879565b9350602085013567ffffffffffffffff811115610910575f80fd5b61091c87828801610894565b9598909750949560400135949350505050565b5f805f805f805f8060e0898b031215610946575f80fd5b61094f89610879565b975061095d60208a01610879565b9650604089013595506060890135945061097960808a01610879565b935061098760a08a01610879565b925060c089013567ffffffffffffffff8111156109a2575f80fd5b6109ae8b828c01610894565b999c989b5096995094979396929594505050565b602081526109dc6020820183516001600160a01b03169052565b5f60208301516109f760408401826001600160a01b03169052565b5060408301516060830152606083015160808301526080830151610a2660a08401826001600160a01b03169052565b5060a08301516001600160a01b03811660c08401525060c08301516101208060e0850152610a586101408501836107d2565b60e086015161010086810191909152909501519301929092525090919050565b602081525f610a8a60208301846107d2565b9392505050565b600181811c90821680610aa557607f821691505b602082108103610ac357634e487b7160e01b5f52602260045260245ffd5b50919050565b81835281816020850137505f828201602090810191909152601f909101601f19169091010190565b606081525f610b04606083018688610ac9565b6020830194909452506040015292915050565b634e487b7160e01b5f52604160045260245ffd5b601f821115610b74575f81815260208120601f850160051c81016020861015610b515750805b601f850160051c820191505b81811015610b7057828155600101610b5d565b5050505b505050565b815167ffffffffffffffff811115610b9357610b93610b17565b610ba781610ba18454610a91565b84610b2b565b602080601f831160018114610bda575f8415610bc35750858301515b5f19600386901b1c1916600185901b178555610b70565b5f85815260208120601f198616915b82811015610c0857888601518255948401946001909101908401610be9565b5085821015610c2557878501515f19600388901b60f8161c191681555b5050505050600190811b01905550565b5f60018201610c5257634e487b7160e01b5f52601160045260245ffd5b5060010190565b878152602081018790526001600160a01b0386811660408301528516606082015260c0608082018190525f90610c929083018587610ac9565b90508260a08301529897505050505050505056fea26469706673582212204277783e43b0bd564779d6eab91c714658e1ff883e6c85e7703a4fce16f5b7bf64736f6c63430008140033","linkReferences":{}},"methodIdentifiers":{"VERSION()":"ffa1ad74","getSettlement(bytes32)":"c3e6ace0","getTotalSettlements()":"88bf6eb3","logComplianceCheck(address,string,uint256)":"44216ced","logSettlement(address,address,uint256,uint256,address,address,string)":"55e94b57","settlementCount()":"037eca76","settlements(bytes32)":"01bc95e2"},"id":1}